{
  "contractName": "DocumentRegistry",
  "abi": [
    {
      "anonymous": false,
      "inputs": [
        {
          "indexed": true,
          "internalType": "bytes32",
          "name": "documentHash",
          "type": "bytes32"
        }
      ],
      "name": "DocumentRegistered",
      "type": "event"
    },
    {
      "inputs": [
        {
          "internalType": "bytes32",
          "name": "documentHash",
          "type": "bytes32"
        }
      ],
      "name": "registerDocument",
      "outputs": [],
      "stateMutability": "nonpayable",
      "type": "function"
    },
    {
      "inputs": [
        {
          "internalType": "bytes32",
          "name": "documentHash",
          "type": "bytes32"
        }
      ],
      "name": "verifyDocument",
      "outputs": [
        {
          "internalType": "bool",
          "name": "",
          "type": "bool"
        }
      ],
      "stateMutability": "view",
      "type": "function",
      "constant": true
    }
  ],
  "bytecode": "0x608060405234801561000f575f80fd5b506102a18061001d5f395ff3fe608060405234801561000f575f80fd5b5060043610610034575f3560e01c80639b13197414610038578063fe35089f14610054575b5f80fd5b610052600480360381019061004d9190610195565b610084565b005b61006e60048036038101906100699190610195565b610139565b60405161007b91906101da565b60405180910390f35b5f808281526020019081526020015f205f9054906101000a900460ff16156100e1576040517f08c379a00000000000000000000000000000000000000000000000000000000081526004016100d89061024d565b60405180910390fd5b60015f808381526020019081526020015f205f6101000a81548160ff021916908315150217905550807f70920d52d0019947c9996e759adf5f3eb10d986bad73ed671d9948c689c4a46960405160405180910390a250565b5f805f8381526020019081526020015f205f9054906101000a900460ff169050919050565b5f80fd5b5f819050919050565b61017481610162565b811461017e575f80fd5b50565b5f8135905061018f8161016b565b92915050565b5f602082840312156101aa576101a961015e565b5b5f6101b784828501610181565b91505092915050565b5f8115159050919050565b6101d4816101c0565b82525050565b5f6020820190506101ed5f8301846101cb565b92915050565b5f82825260208201905092915050565b7f446f63756d656e7420616c7265616479207265676973746572656400000000005f82015250565b5f610237601b836101f3565b915061024282610203565b602082019050919050565b5f6020820190508181035f8301526102648161022b565b905091905056fea26469706673582212201a0bc82343a07ce4dfd1440fedac71d1ae71df71f55584651c3c6d84fba80d7464736f6c63430008150033",
  "immutableReferences": {},
  "source": "pragma solidity ^0.8.21;\r\n\r\ncontract DocumentRegistry {\r\n    mapping(bytes32 => bool) private documents;\r\n\r\n    event DocumentRegistered(bytes32 indexed documentHash);\r\n\r\n    function registerDocument(bytes32 documentHash) public {\r\n        require(!documents[documentHash], \"Document already registered\");\r\n        documents[documentHash] = true;\r\n        emit DocumentRegistered(documentHash);\r\n    }\r\n\r\n    function verifyDocument(bytes32 documentHash) public view returns (bool) {\r\n        return documents[documentHash];\r\n    }\r\n}",
  "sourcePath": "D:\\Development\\Projects\\Facudade\\django-blockchain-validator\\app\\contracts\\contracts\\DocumentRegistry.sol",
  "compiler": {
    "name": "solc",
    "version": "0.8.21+commit.d9974bed.Emscripten.clang"
  },
  "schemaVersion": "3.4.16",
  "updatedAt": "2024-10-15T00:45:00.120Z",
  "networkType": "ethereum",
  "devdoc": {
    "kind": "dev",
    "methods": {},
    "version": 1
  },
  "userdoc": {
    "kind": "user",
    "methods": {},
    "version": 1
  }
}